:020000040800F2
:1000000040040020990C0008A30A0008A50A000873
:10001000A70A0008A90A0008AB0A000800000000AF
:10002000000000000000000000000000AD0A000811
:10003000AF0A000800000000B10A0008B30A000877
:10004000BD0C0008C10C0008C50C0008C90C000854
:10005000CD0C0008D10C0008B50A0008D50C00082A
:10006000D90C0008DD0C0008E10C0008E50C0008C4
:10007000E90C0008ED0C0008F10C0008F50C000874
:10008000F90C0008FD0C0008010D0008050D000822
:10009000090D00080D0D0008110D0008150D0008D0
:1000A000190D00081D0D0008210D0008250D000880
:1000B000290D00082D0D0008310D0008350D000830
:1000C000390D00083D0D0008410D0008450D0008E0
:1000D000490D00084D0D0008D90A0008510D00080F
:1000E000DD0A0008550D0008590D00085D0D0008D7
:1000F000610D0008650D0008690D00086D0D000810
:10010000710D0008750D0008790D00087D0D0008BF
:10011000810D0008850D0008F30A0008890D00080C
:100120008D0D0008910D0008950D0008990D00082F
:100130009D0D00080000000000000000A10D000857
:10014000A50D0008A90D0008AD0D0008B10D0008AF
:10015000B50D0008B90D0008BD0D0008C10D00085F
:10016000C50D0008C90D0008CD0D0008D10D00080F
:10017000D50D0008D90D0008DD0D000800000000B5
:1001800000000000E10D0008000000000000000079
:10019000E50D00080000000000000000E90D000867
:1001A000000000000000000000000000ED0D00084D
:1001B000F10D0008F50D0008F90D0008FD0D00080F
:1001C000010E0008012100F01F029140DFF8082411
:1001D000400942F8201070470901002807D5DFF8D0
:1001E000FC2300F00F00104400F8041C7047DFF8F7
:1001F000F0231154704700F0070010B5C0F1070359
:10020000052B28BF0423041D072C34BF0020C01E6B
:10021000012404FA03F35B1E1940814004FA00F044
:10022000401E1040084310BDDFF8B81301E0DFF8AE
:10023000B81381B00A6802430A6009680840009058
:10024000009801B0704710B5E84B01F0FF0253F879
:100250002240090C8C4391FAA1F1B1FA81F1884056
:10026000204343F8220010BD30B500F00DF80368BC
:1002700000F011F8016030BD30B500F005F8C3683A
:1002800000F009F8C16030BD91FAA1F5B5FA85F525
:1002900091FAA1F1704703246D00B1FA81F1AC40ED
:1002A0004900A34302FA01F11943704730B593B0F6
:1002B00000F06AF800F0B7F800F030F94FF40030C1
:1002C000FFF7B5FF0C20059005A90220069003203A
:1002D0000790002008900120099007200A90C44C44
:1002E000C448C54D00F0AEF900F097F8014626204D
:1002F000FFF772FF2620FFF765FF4FF416500B90B3
:100300000BA900200C900D900E900C200F90002057
:1003100010901190284600F03AFA286920F4904095
:100320002861686920F02A006861E86840F400509C
:10033000E8601020FFF77BFF00F06FF801463620E1
:10034000FFF74AFF3620FFF73DFF5320ADF80000CE
:10035000002001900A2002906946A84C204600F037
:1003600069FA606820F0700040F020006060A068CA
:1003700020F08000A060206840F001002060E0686C
:1003800040F00100E060FEE710B59D48984C82B057
:10039000016841F480410160006800F480400090F1
:1003A00000984FF08050FFF742FF20684FF6FF01A2
:1003B00008409449084320600022206800F0AAF811
:1003C00001466FF00B00FFF707FF00F026F801462B
:1003D0006FF00A00FFF700FF00F01FF801466FF012
:1003E0000900FFF7F9FE00F018F801466FF004006D
:1003F000FFF7F2FE00F011F801466FF00300FFF77F
:10040000EBFE00F00AF801466FF00100FFF7E4FE92
:1004100000F003F8BDE81C4078E0206800220021CD
:10042000C0F30220E7E610B5774801680909090121
:1004300041F002010160006800F00F00022800D0C6
:10044000FEE77248016821F4404141F480410160B7
:10045000016821F4803101606D48016821F0F801E4
:1004600041F080010160016841F001010160016813
:100470008907FCD54168674A114041F4A84141F021
:1004800010014160416821F4403141F48031416004
:10049000416821F0E04141F480314160016841F060
:1004A0008071016001688901FCD5816821F0F0014B
:1004B0008160816821F4E05141F48051816081685C
:1004C00021F46041816081688908890041F002015E
:1004D0008160816801F00C010829FAD14E4C204658
:1004E00000F00AFA4D48016841F00401016020461D
:1004F00000F00EFA4A48016821F080710160002284
:100500003B48006800F006F8BDE8104001464FF097
:10051000FF3061E60021C0F302206CE630B589B0FF
:100520000420FFF781FE8020FFF77EFE0120FFF709
:100530007BFE0220FFF778FE2E4C3A493A4D4FF4ED
:100540000010A0610220FFF77EFE4FF47021022010
:10055000FFF779FE4FF400500090012000F066F89C
:100560000120009000F062F800224FF4005128466C
:10057000FFF782FE012201212846FFF77DFE0022BF
:100580004FF400512846FFF76FFE00220121284654
:10059000FFF76AFE2020029002A9012003900020AC
:1005A000049005900690204600F04CF8104CFFF7A0
:1005B00034FF01460620FFF70FFE0620FFF702FE7C
:1005C000FFF72BFF01462820FFF706FE2820FFF744
:1005D000F9FD09B030BD000000E100E018ED00E0D9
:1005E00000E400E030380240403802400838014062
:1005F0000CED00E00000024000440040001000400C
:10060000443802400007FA05003C024000700040F8
:10061000003802400080BFFF00BD010510E000E08F
:100620008C3802400300F000000802408DF80400FE
:1006300000208DF8050002208DF80600684600F0C5
:100640006FB90000F0B50A6892FAA2F2B2FA82F429
:100650000F22032307E02D0A00F041F8476A00F05B
:1006600045F84562641C0D6835FA04F62AD0012667
:10067000A6403540F6D04E68076800F044F80660A2
:100680004E68012E18BF022E04D18E68876800F0D4
:100690003AF8866095FAA5FC0E69C76800F035F84F
:1006A000C6604E68022EDDD195FAA5F7B7FA87F736
:1006B0004E69082FCFD200F012F8076A00F016F842
:1006C0000562CFE74A68012A18BF022A05D14268AD
:1006D000C968AA436943114341600120F0BD95FAFE
:1006E000A5FCBCFA8CFC95FAA5F570474FEA8C0C7A
:1006F000B5FA85F502FA0CFCAD0027EA0C0706FAFC
:1007000005F53D43704795FAA5FCBCFA8CFC4FEA11
:100710004C0C03FA0CFC27EA0C0795FAA5FCBCFA72
:100720008CFC4FEA4C0C06FA0CF63E437047000076
:1007300010B5192461436424B2F5004F0ED15A005C
:1007400000F01DF8C9003231B1FBF4F14B0003F4A5
:10075000F87303EB021201F007010CE09A0000F0BD
:100760000EF809013231B1FBF4F101F0F00303EBB3
:10077000021201F00F01891889B2816010BDB1FB2E
:10078000F2F16422B1FBF2F204FB121170477FB563
:1007900004460026E06880040D4639D4E068244908
:1007A000084069680843E968084329690843A9695A
:1007B0000843E0602069A96820F4405008432061A4
:1007C0006069696920F4407008436061684600F020
:1007D000FBF81148844208D0104884421CBF1048DE
:1007E00084420AD00F48844201D1039906E00E48A2
:1007F00084421CBF0D4884420AD1029900291CBFC3
:100800002B68002B04D0AA692046FFF791FF012630
:10081000304604B070BD00000010014000440040AC
:100820000048004000140140004C004000500040CF
:10083000F369FFFFF0B5254B0468284A264D254E85
:10084000234F984218BFB0F1804F07D0B84218BF6D
:10085000B04203D0A84218BF90420FD1D1F804C0D3
:10086000984224F0700418BFB0F1804F4CEA0404A1
:1008700017D0B8421CBFB042A84212D090421CBF51
:10088000174DA8420DD0174DA8421CBF164DA842C7
:1008900007D0164DA8421FBF154DA842154DA842BE
:1008A00003D1CD6824F440742C43046098428C68D2
:1008B000C4620C88846212BF9042097C0163416962
:1008C00041F0010141610120F0BD00000000014044
:1008D0000004004000080040000C004000040140FB
:1008E0000040014000440140004801400018004021
:1008F000001C0040002000404FF47A720649B0FB13
:10090000F2F0401E486000208860052008607047B3
:10091000024908607047000010E000E0000000207D
:1009200010B504790368274A0121002C3FD0002B21
:1009300046D044791CB1022C0ED009D314E054687F
:1009400024EA0303536013680468234313600CE034
:10095000146824EA030301E0146823431360536816
:1009600004682343536000E0002183791C0027D0F2
:10097000012B04D019D3032B0ED009D315E0D36873
:100980000468A343D360936800681843906017E03D
:1009900093680468A34302E0936804682343936068
:1009A000D36800681843D0600AE0002108E01468AA
:1009B00024EA030313605368006823EA00005060D0
:1009C000084610BD003C014010B5044600F00CF88C
:1009D000206000F01BF8606000F01EF8A060606806
:1009E00000F022F8E06010BD2548006800F00C001F
:1009F000042804D0082818BF0C2801D001E001E029
:100A000018E001E01D4870471B4870471C491D4A0B
:100A10000968C1F3031104E019491B4A0968C1F3CD
:100A20008221515CC84070471549174A0968C1F3D3
:100A30004231F6E715490A6802F48002B2F5800FE8
:100A40000CBF0E4A0C4A082808680B68096800F0B9
:100A50003F00B2FBF0F0C3F3881205D1C1F30141AE
:100A6000491C5043490002E05043C1F30271FFE7C3
:100A7000B0FBF1F0704700000024F40000127A008F
:100A800008380240B00B0008B40C000804380240DB
:100A90002F4909680140814201D10120704700209F
:100AA00070477047FEE7FEE7FEE7FEE770477047D6
:100AB0007047704780B50120FFF7EAFF10B1244965
:100AC000012008602348C16A0A2904D2026B40F859
:100AD0002120491CC16201BD00BF704780B54FF4A1
:100AE0000050FFF7D5FF18B119494FF400500860C6
:100AF00001BD10B51848016849084900016042F27B
:100B000010736FF00101416012490A6B9A4238BFBD
:100B1000521C17D30022012351F82340A21801EBE5
:100B200083045B1C54F8044C121B0A2BF4DB0923CE
:100B3000B2FBF3F28A6212B1084BB3FBF2F24A63E2
:100B40000022CA620A63016841F00101016010BD20
:100B5000143C0140040000200C100040C0C62D00D1
:100B60000E480F4A016841F4700101600D480168A8
:100B700041F00101016000218160016811400160C4
:100B800009494160016821F4802101600021C160B0
:100B90004FF00060054908607047000088ED00E0F4
:100BA000FFFFF6FE003802401030002408ED00E0A0
:100BB000000000000000000001020304060708090D
:100BC00030B5016842688468014401EB5203D207E2
:100BD00048BF4C44994201D10C3030BD11F9012B72
:100BE00011F8015B002A04F8015B02D5521CF9D10F
:100BF000F0E7521EF4D5EDE710B5074979441831F6
:100C0000064C7C44163404E00A68081D11448847E9
:100C10000146A142F8D110BD2C00000038000000B0
:100C20004EF68851CEF20001086840F4700008606A
:100C3000BFF34F8FBFF36F8F4FF00070E1EE100ADC
:100C4000704700007DFFFFFFBC0100000C000000AA
:100C50000000002000F00BF8002801D0FFF7CCFFC7
:100C60000020AFF30080FFF721FB00F002F8012025
:100C7000704700F001B800000746384600F002F85F
:100C8000FBE7000080B5AFF30080024A1100182096
:100C9000ABBEFBE726000200014880470148004741
:100CA000610B0008A90C0008AFF30080FFF7B8FF44
:100CB000FFF7D0FF0000000001020304FFF7FEBFB2
:100CC000FFF7FEBFFFF7FEBFFFF7FEBFFFF7FEBF58
:100CD000FFF7FEBFFFF7FEBFFFF7FEBFFFF7FEBF48
:100CE000FFF7FEBFFFF7FEBFFFF7FEBFFFF7FEBF38
:100CF000FFF7FEBFFFF7FEBFFFF7FEBFFFF7FEBF28
:100D0000FFF7FEBFFFF7FEBFFFF7FEBFFFF7FEBF17
:100D1000FFF7FEBFFFF7FEBFFFF7FEBFFFF7FEBF07
:100D2000FFF7FEBFFFF7FEBFFFF7FEBFFFF7FEBFF7
:100D3000FFF7FEBFFFF7FEBFFFF7FEBFFFF7FEBFE7
:100D4000FFF7FEBFFFF7FEBFFFF7FEBFFFF7FEBFD7
:100D5000FFF7FEBFFFF7FEBFFFF7FEBFFFF7FEBFC7
:100D6000FFF7FEBFFFF7FEBFFFF7FEBFFFF7FEBFB7
:100D7000FFF7FEBFFFF7FEBFFFF7FEBFFFF7FEBFA7
:100D8000FFF7FEBFFFF7FEBFFFF7FEBFFFF7FEBF97
:100D9000FFF7FEBFFFF7FEBFFFF7FEBFFFF7FEBF87
:100DA000FFF7FEBFFFF7FEBFFFF7FEBFFFF7FEBF77
:100DB000FFF7FEBFFFF7FEBFFFF7FEBFFFF7FEBF67
:100DC000FFF7FEBFFFF7FEBFFFF7FEBFFFF7FEBF57
:100DD000FFF7FEBFFFF7FEBFFFF7FEBFFFF7FEBF47
:100DE000FFF7FEBFFFF7FEBFFFF7FEBFFFF7FEBF37
:100DF000FFF7FEBFFFF7FEBFFFF7FEBFFFF7FEBF27
:0A0E0000FFF7FEBF020024F4C70054
:0400000508000CA93A
:00000001FF
